:020000040800F2
:1000000000000120D5200008791A00087B1A00089A
:100010007D1A00087F1A0008811A000800000000FD
:10002000000000000000000000000000831A00082B
:10003000851A000800000000871A0008891A0008C5
:100040001D2100081D2100081D2100081D21000898
:100050001D2100081D2100081D2100081D21000888
:100060001D2100081D2100081D2100081D21000878
:100070001D2100081D2100081D2100081D21000868
:100080001D2100081D2100081D2100081D21000858
:100090001D2100081D2100081D2100081D21000848
:1000A0001D2100081D2100081D2100081D21000838
:1000B0001D2100081D2100081D2100081D21000828
:1000C0001D2100081D2100081D2100081D21000818
:1000D0001D2100081D2100081D2100081D21000808
:1000E0001D2100081D2100081D2100081D210008F8
:1000F0001D2100081D2100081D2100081D210008E8
:100100001D2100081D2100081D2100081D210008D7
:100110001D2100081D2100081D2100081D210008C7
:100120001D2100081D2100081D2100081D210008B7
:1001300000000000000000000000000000000000BF
:1001400000000000000000000000000000000000AF
:10015000000000000000000000000000000000009F
:10016000000000000000000000000000000000008F
:10017000000000000000000000000000000000007F
:10018000000000000000000000000000000000006F
:10019000000000000000000000000000000000005F
:1001A000000000000000000000000000000000004F
:1001B000000000000000000000000000000000003F
:1001C000000000000000000000000000000000002F
:1001D000000000000000000000000000000000001F
:0401E0005FF8E0F1F3
:1001E8004FF0FF0C1CEAD0521EBF1CEAD15392EA12
:1001F8000C0F93EA0C0F6FD01A4480EA010C4002EE
:1002080018BF5FEA41211ED04FF0006343EA501047
:1002180043EA5111A0FB01310CF00040B1F5000F89
:100228003EBF490041EAD3715B0040EA010062F138
:100238007F02FD2A1DD8B3F1004F40EBC25008BF22
:1002480020F00100704790F0000F0CF0004C08BF40
:1002580049024CEA502040EA51207F3AC2BFD2F10D
:10026800FF0340EAC250704740F400004FF000031B
:10027800013A5DDC12F1190FDCBF00F00040704755
:10028800C2F10002410021FA02F1C2F1200200FA93
:1002980002FC5FEA310040F1000053EA4C0308BF5A
:1002A80020EADC70704792F0000F00F0004C02BFAB
:1002B800400010F4000F013AF9D040EA0C0093F026
:1002C800000F01F0004C02BF490011F4000F013B80
:1002D800F9D041EA0C018FE70CEAD15392EA0C0FEE
:1002E80018BF93EA0C0F0AD030F0004C18BF31F059
:1002F800004CD8D180EA010000F00040704790F02F
:10030800000F17BF90F0004F084691F0000F91F0D2
:10031800004F14D092EA0C0F01D142020FD193EA98
:100328000C0F03D14B0218BF084608D180EA010020
:1003380000F0004040F0FE4040F40000704740F0FC
:10034800FE4040F44000704781F0004102E000BFE9
:1003580083F0004330B54FEA41044FEA430594EA7D
:10036800050F08BF90EA020F1FBF54EA000C55EAB8
:10037800020C7FEA645C7FEA655C00F0E2804FEA89
:100388005454D4EB5555B8BF6D420CDD2C4480EA6B
:10039800020281EA030382EA000083EA010180EA9B
:1003A800020281EA0303362D88BF30BD11F0004FE9
:1003B8004FEA01314FF4801C4CEA113102D040421F
:1003C80061EB410113F0004F4FEA03334CEA13335A
:1003D80002D0524263EB430394EA050F00F0A78072
:1003E800A4F10104D5F1200E0DDB02FA0EFC22FA6D
:1003F80005F2801841F1000103FA0EF2801843FA61
:1004080005F359410EE0A5F120050EF1200E012A51
:1004180003FA0EFC28BF4CF0020C43FA05F3C0188F
:1004280051EBE37101F0004507D54FF0000EDCF108
:10043800000C7EEB00006EEB0101B1F5801F1BD3B1
:10044800B1F5001F0CD349085FEA30004FEA3C0CB5
:1004580004F101044FEA445212F5800F80F09A80AB
:10046800BCF1004F08BF5FEA500C50F1000041EBAF
:10047800045141EA050130BD5FEA4C0C404141EBB3
:100488000101013C28BFB1F5801FE9D291F0000FAE
:1004980004BF01460020B1FA81F308BF2033A3F15D
:1004A8000B03B3F120020CDA0C3208DD02F1140C54
:1004B800C2F10C0201FA0CF021FA02F10CE002F18F
:1004C8001402D8BFC2F1200C01FA02F120FA0CFC88
:1004D800DCBF41EA0C019040E41AA2BF01EB0451D1
:1004E800294330BD6FEA04041F3C1CDA0C340EDCCF
:1004F80004F11404C4F1200220FA04F001FA02F312
:1005080040EA030021FA04F345EA030130BDC4F1CF
:100518000C04C4F1200220FA02F001FA04F340EAC4
:100528000300294630BD21FA04F0294630BD94F075
:10053800000F83F4801306BF81F480110134013D5C
:100548004EE77FEA645C18BF7FEA655C29D094EACD
:10055800050F08BF90EA020F05D054EA000C04BF4B
:100568001946104630BD91EA030F1EBF0021002036
:1005780030BD5FEA545C05D14000494128BF41F0D5
:10058800004130BD14F580043CBF01F5801130BD39
:1005980001F0004545F0FE4141F470014FF00000C4
:1005A80030BD7FEA645C1ABF194610467FEA655C75
:1005B8001CBF0B46024650EA013406BF52EA033517
:1005C80091EA030F41F4002130BD00BF90F0000F05
:1005D80004BF0021704730B54FF4806404F1320441
:1005E8004FF000054FF0000150E700BF90F0000FFA
:1005F80004BF0021704730B54FF4806404F1320421
:1006080010F0004548BF40424FF000013EE700BFF0
:1006180042004FEAE2014FEA31014FEA02701FBF80
:1006280012F07F4393F07F4F81F06051704732F0B2
:100638007F4208BF704793F07F4F04BF41F4002109
:10064800704730B54FF4607401F0004521F0004167
:100658001CE700BF50EA010208BF704730B54FF0F1
:1006680000050AE050EA010208BF704730B511F0F2
:10067800004502D5404261EB41014FF4806404F12A
:1006880032045FEA915C3FF4D8AE4FF003025FEAB0
:10069800DC0C18BF03325FEADC0C18BF033202EB34
:1006A800DC02C2F1200300FA03FC20FA02F001FA8E
:1006B80003FE40EA0E0021FA02F11444BDE600BF31
:1006C80070B54FF0FF0C4CF4E06C1CEA11541DBFE0
:1006D8001CEA135594EA0C0F95EA0C0F00F0DEF8AB
:1006E8002C4481EA030621EA4C5123EA4C5350EA90
:1006F800013518BF52EA033541F4801143F48013E1
:1007080038D0A0FB02CE4FF00005E1FB02E506F071
:100718000042E0FB03E54FF00006E1FB03569CF0C6
:10072800000F18BF4EF0010EA4F1FF04B6F5007FCC
:1007380064F5407404D25FEA4E0E6D4146EB06063E
:1007480042EAC62141EA55514FEAC52040EA5E50C7
:100758004FEACE2EB4F1FD0C88BFBCF5E06F1ED871
:10076800BEF1004F08BF5FEA500E50F1000041EBA8
:10077800045170BD06F0004646EA010140EA020055
:1007880081EA0301B4EB5C04C2BFD4EB0C0541EA77
:10079800045170BD41F480114FF0000E013C00F38C
:1007A800AB8014F1360FDEBF002001F0004170BDB0
:1007B800C4F10004203C35DA0C341BDC04F11404C9
:1007C800C4F1200500FA05F320FA04F001FA05F255
:1007D80040EA020001F0004221F0004110EBD37022
:1007E80021FA04F642EB06015EEA430E08BF20EA4E
:1007F800D37070BDC4F10C04C4F1200500FA04F3F1
:1008080020FA05F001FA04F240EA020001F0004182
:1008180010EBD37041F100015EEA430E08BF20EAF5
:10082800D37070BDC4F1200500FA05F24EEA020E3D
:1008380020FA04F301FA05F243EA020321FA04F06C
:1008480001F0004121FA04F220EA020000EBD37023
:100858005EEA430E08BF20EAD37070BD94F0000F23
:100868000FD101F00046400041EB010111F4801F57
:1008780008BF013CF7D041EA060195F0000F18BF08
:10088800704703F00046520043EB030313F4801F44
:1008980008BF013DF7D043EA0603704794EA0C0FFE
:1008A8000CEA135518BF95EA0C0F0CD050EA410614
:1008B80018BF52EA4306D1D181EA030101F0004191
:1008C8004FF0000070BD50EA410606BF10461946B9
:1008D80052EA430619D094EA0C0F02D150EA0136C5
:1008E80013D195EA0C0F05D152EA03361CBF104606
:1008F80019460AD181EA030101F0004141F0FE41A5
:1009080041F470014FF0000070BD41F0FE4141F428
:10091800780170BD70B54FF0FF0C4CF4E06C1CEA28
:1009280011541DBF1CEA135594EA0C0F95EA0C0FDD
:1009380000F0A7F8A4EB050481EA030E52EA033598
:100948004FEA013100F088804FEA03334FF08055B9
:1009580045EA131343EA12634FEA022245EA1115E6
:1009680045EA10654FEA00260EF000419D4208BF97
:10097800964244F1FD0404F5407402D25B084FEA44
:100988003202B61A65EB03055B084FEA32024FF4F0
:1009980080104FF4002CB6EB020E75EB030E22BF4D
:1009A800B61A754640EA0C005B084FEA3202B6EB0D
:1009B800020E75EB030E22BFB61A754640EA5C00BC
:1009C8005B084FEA3202B6EB020E75EB030E22BF4C
:1009D800B61A754640EA9C005B084FEA3202B6EB4D
:1009E800020E75EB030E22BFB61A754640EADC000C
:1009F80055EA060E18D04FEA051545EA16754FEA6E
:100A080006164FEAC30343EA52734FEAC2025FEA8B
:100A18001C1CC0D111F4801F0BD141EA00014FF01A
:100A280000004FF0004CB6E711F4801F04BF0143EB
:100A38000020B4F1FD0C88BFBCF5E06F3FF6AFAE07
:100A4800B5EB030C04BFB6EB020C5FEA500C50F197
:100A5800000041EB045170BD0EF0004E4EEA11311A
:100A680014EB5C04C2BFD4EB0C0541EA045170BD21
:100A780041F480114FF0000E013C90E645EA060E65
:100A88008DE60CEA135594EA0C0F08BF95EA0C0F93
:100A98003FF43BAF94EA0C0F0AD150EA01347FF4DB
:100AA80034AF95EA0C0F7FF425AF104619462CE7B2
:100AB80095EA0C0F06D152EA03353FF4FDAE104615
:100AC800194622E750EA410618BF52EA43067FF466
:100AD800C5AE50EA41047FF40DAF52EA43057FF4F6
:100AE800EBAE12E74FF0FF3C06E000BF4FF0010C01
:100AF80002E000BF4FF0010C4DF804CD4FEA410C65
:100B08007FEA6C5C4FEA430C18BF7FEA6C5C1BD031
:100B180001B050EA410C0CBF52EA430C91EA030FB2
:100B280002BF90EA020F0020704710F1000F91EA0F
:100B3800030F58BF994208BF90422CBFD8176FEADD
:100B4800E37040F0010070474FEA410C7FEA6C5CAB
:100B580002D150EA013C07D14FEA430C7FEA6C5CB2
:100B6800D6D152EA033CD3D05DF8040B704700BFDE
:100B78008446104662468C461946634600E000BF2C
:100B880001B5FFF7B7FF002848BF10F1000F01BDFE
:100B98004DF808EDFFF7F4FF0CBF012000205DF8C9
:100BA80008FB00BF4DF808EDFFF7EAFF34BF01204E
:100BB80000205DF808FB00BF4DF808EDFFF7E0FFE7
:100BC80094BF012000205DF808FB00BF4DF808ED38
:100BD800FFF7CEFF94BF012000205DF808FB00BF9F
:100BE8004DF808EDFFF7C4FF34BF012000205DF881
:100BF80008FB00BF4FEA410212F5001215D211D5C9
:100C08006FF47873B3EB625212D94FEAC12343F001
:100C1800004343EA505311F0004F23FA02F018BF83
:100C2800404270474FF00000704750EA013005D14C
:100C380011F0004008BF6FF0004070474FF000000F
:100C4800704700BF4FEA4102B2F1E04324BFB3F559
:100C5800001CDCF1FE5C0DD901F0004C4FEAC0022B
:100C68004CEA5070B2F1004F40EB830008BF20F00F
:100C78000100704711F0804F21D113F13872BCBFC9
:100C880001F00040704741F480114FEA5252C2F11E
:100C98001802C2F1200C10FA0CF320FA02F018BF67
:100CA80040F001004FEAC1234FEAD32303FA0CFCBA
:100CB80040EA0C0023FA02F34FEA4303CCE77FEA49
:100CC800625307D150EA01331EBF4FF0FE4040F493
:100CD8004000704701F0004040F0FE4040F4000042
:100CE800704700BF80F0004002E000BF81F0004183
:100CF80042001FBF5FEA410392EA030F7FEA226CBA
:100D08007FEA236C6AD04FEA1262D2EB1363C1BF49
:100D1800D218414048404140B8BF5B42192B88BFB8
:100D2800704710F0004F40F4000020F07F4018BFDB
:100D3800404211F0004F41F4000121F07F4118BFFB
:100D4800494292EA030F3FD0A2F1010241FA03FCA3
:100D580010EB0C00C3F1200301FA03F100F000438B
:100D680002D5494260EB4000B0F5000F13D3B0F153
:100D7800807F06D340084FEA310102F10102FE2AC2
:100D880051D2B1F1004F40EBC25008BF20F0010032
:100D980040EA03007047490040EB0000013A28BFD1
:100DA800B0F5000FEDD2B0FA80FCACF1080CB2EB54
:100DB8000C0200FA0CF0AABF00EBC25052421843D2
:100DC800BCBFD0401843704792F0000F81F4000177
:100DD80006BF80F400000132013BB5E74FEA41034A
:100DE8007FEA226C18BF7FEA236C21D092EA030FB6
:100DF80004D092F0000F08BF0846704790EA010F30
:100E08001CBF0020704712F07F4F04D1400028BF5C
:100E180040F00040704712F100723CBF00F500003E
:100E2800704700F0004343F0FE4040F40000704774
:100E38007FEA226216BF08467FEA23630146420220
:100E480006BF5FEA412390EA010F40F48000704733
:100E58004FF0000304E000BF10F0004348BF4042D9
:100E68005FEA000C08BF704743F0964301464FF015
:100E780000001CE050EA010208BF70474FF0000371
:100E88000AE000BF50EA010208BF704711F00043B2
:100E980002D5404261EB41015FEA010C02BF844682
:100EA8000146002043F0B64308BFA3F18053A3F5E1
:100EB8000003BCFA8CF2083AA3EBC25310DB01FA28
:100EC80002FC634400FA02FCC2F12002BCF1004FAC
:100ED80020FA02F243EB020008BF20F0010070473D
:100EE80002F1200201FA02FCC2F1200250EA4C0091
:100EF80021FA02F243EB020008BF20EADC707047D7
:100F08004FF0FF3C06E000BF4FF0010C02E000BFCD
:100F18004FF0010C4DF804CD4FEA40024FEA41036F
:100F28007FEA226C18BF7FEA236C11D001B052EA25
:100F3800530C18BF90EA010F58BFB2EB030088BFEB
:100F4800C81738BF6FEAE17018BF40F0010070475A
:100F58007FEA226C02D15FEA402C05D17FEA236C3C
:100F6800E4D15FEA412CE1D05DF8040B704700BF83
:100F7800844608466146FFE70FB5FFF7C9FF00281A
:100F880048BF10F1000F0FBD4DF808EDFFF7F4FF53
:100F98000CBF012000205DF808FB00BF4DF808EDEC
:100FA800FFF7EAFF34BF012000205DF808FB00BF0F
:100FB8004DF808EDFFF7E0FF94BF012000205DF831
:100FC80008FB00BF4DF808EDFFF7D2FF94BF0120E2
:100FD80000205DF808FB00BF4DF808EDFFF7C8FFDB
:100FE80034BF012000205DF808FB00BF4FEA400233
:100FF800B2F1FE4F0FD34FF09E03B3EB12620DD93F
:101008004FEA002343F0004310F0004F23FA02F0A8
:1010180018BF404270474FF00000704712F1610F4F
:1010280001D1420205D110F0004008BF6FF0004026
:1010380070474FF00000704700F1340191E8380024
:101048009C46A6464CF8045D90E8FF0FE54600BDB7
:1010580090EC210B704700BF80EC210B704700BF5C
:1010680090EC200B704700BF80EC200B704700BF4E
:10107800D0EC200B704700BFC0EC200B704700BFBE
:10108800F0EC0201F0EC0211F0EC0221F0EC02317C
:10109800F0EC0241F0EC0251F0EC0261F0EC02716C
:1010A800F0EC0281F0EC0291F0EC02A1F0EC02B15C
:1010B800F0EC02C1F0EC02D1F0EC02E1F0EC02F14C
:1010C800704700BFE0EC0201E0EC0211E0EC022105
:1010D800E0EC0231E0EC0241E0EC0251E0EC0261AC
:1010E800E0EC0271E0EC0281E0EC0291E0EC02A19C
:1010F800E0EC02B1E0EC02C1E0EC02D1E0EC02E18C
:10110800E0EC02F1704700BFB0FC0181B0FC019136
:10111800B0FC01A1B0FC01B1704700BFA0FC018187
:10112800A0FC0191A0FC01A1A0FC01B1704700BF87
:10113800EC4600B52DE900502DE9FF1F4FF00003E4
:101148002DE90C0001A903F01DFBDDF840E012B009
:10115800704700BFEC4600B52DE900502DE9FF1F90
:101168004FF000032DE90C0001A903F04DFBDDF859
:1011780040E012B0704700BFEC4600B52DE90050C2
:101188002DE9FF1F4FF000032DE90C0001A903F022
:101198005DFBDDF840E012B0704700BFEC4600B5DB
:1011A8002DE900502DE9FF1F4FF000032DE90C0039
:1011B80001AB03F01DFBDDF840E012B0704700BF43
:1011C800EC4600B52DE900502DE9FF1F4FF0000354
:1011D8002DE90C0001AA03F097FBDDF840E012B0FE
:1011E800704700BF844641EA000313F0030349D166
:1011F800403A23D30B6803604B6843608B68836075
:10120800CB68C3600B6903614B6943618B69836178
:10121800CB69C3610B6A03624B6A43628B6A836260
:10122800CB6AC3620B6B03634B6B43638B6B836348
:10123800CB6BC36340304031403ADBD230320BD302
:101248000B6803604B6843608B688360CB68C3603E
:1012580010301031103AF3D20C3205D351F8043B58
:1012680040F8043B043AF9D2043208D0D2071CBF34
:1012780011F8013B00F8013B01D30B88038060465D
:10128800704700BF082A13D38B07B1D010F00303AF
:10129800AED0C3F10403D21ADB071CBF11F8013B1F
:1012A80000F8013BA4D331F8023B20F8023B9FE74A
:1012B800043AD9D3013A11F8013B00F8013BF9D2BD
:1012C8000B7803704B7843708B7883706046704757
:1012D8000348044B834202D0034B03B118477047BD
:1012E8005401002054010020000000000548064B6E
:1012F8001B1AD90F01EBA301491002D0034B03B10C
:1013080018477047540100205401002000000000D5
:1013180010B5064C237843B9FFF7DAFF044B13B135
:101328000448AFF300800123237010BD540100204E
:1013380000000000D454000808B5054B1BB105494E
:101348000548AFF30080BDE80840FFF7CFBF00BFF6
:101358000000000058010020D454000870B504466D
:1013680008461B49FEF73CFF0021FFF7C1FC214658
:10137800FFF7BCFC0446174B1860174E3168FFF79F
:10138800B7FC054630600021FFF726FE00B10025B6
:10139800114B1D6000212046FEF722FF0646002162
:1013A8002846FEF71DFF01463046FFF7A1FC05461B
:1013B8000A4E31682046FFF799FC0021FEF710FF1E
:1013C80001462846FFF794FCFFF710FE346070BD15
:1013D8009A99993E7801002070010020740100203C
:1013E80084B0F8B5044607A880E80E000B99079862
:1013F800FFF7B4FF07460C990898FFF7AFFF0646BA
:101408000D990998FFF7AAFF05460E990A98FFF764
:10141800A5FF27606660A560E0602046BDE8F8404B
:1014280004B070474138032813D8DFE800F00206FB
:101438000A0E094B1B68586A7047084B1B68586AA4
:101448007047074B1B68586A7047064B1B68586AF9
:1014580070470020704700BF9C0200205402002003
:101468000C020020C40100204138032812D8DFE80C
:1014780000F002060A0E084B1B6859627047074BBA
:101488001B6859627047064B1B6859627047054BC9
:101498001B685962704700BF9C020020540200205C
:1014A8000C020020C401002008B500214120FFF7EC
:1014B800DBFF00214220FFF7D7FF00214320FFF781
:1014C800D3FF00214420FFF7CFFF08BD0000000034
:1014D8002DE9F04104464120FFF7A4FFFFF786F805
:1014E8001DA3D3E90023FFF7EBF8FFF7ABFB80461A
:1014F8004220FFF797FFFFF779F817A3D3E90023F6
:10150800FFF7DEF8FFF79EFB07464320FFF78AFF49
:10151800FFF76CF810A3D3E90023FFF7D1F8FFF722
:1015280091FB06464420FFF77DFFFFF75FF80AA30B
:10153800D3E90023FFF7C4F8FFF784FB0546FFF75C
:10154800B3FFC4F800806760A660E5602046BDE888
:10155800F08100BFAFF30080613B32A5F4C6C93FFC
:1015680086B0184B9A6942F004029A619A6902F0AF
:1015780004020192019A9A6942F040029A619A69BA
:1015880002F040020292029A9A6942F020029A619D
:101598009A6902F020020392039A9A6942F01002B3
:1015A8009A619A6902F010020492049A9A6942F0C8
:1015B80008029A619B6903F008030593059B06B02E
:1015C800704700BF0010024072B6FEE710B590B039
:1015D80006AC28220021204603F052FE0023019386
:1015E8000293039304930593012206924FF48033E8
:1015F80007930A9202220D920E934FF4E0130F9371
:10160800204600F06BFF78B90F2301930221029165
:10161800002303934FF480620492059301A801F01C
:101628008FF918B910B010BDFFF7CEFFFFF7CCFF48
:1016380000B585B000F096FDFFF7C8FFFFF790FFF3
:1016480000F024FC00F032FA00F062FA00F092FA9E
:1016580000F0C2FA00F0AAFC00230193029303935E
:1016680004AB13E9070000F0B8F9F5E70000000043
:101678002DE9F0478CB004460CA800E90E00099843
:10168800FEF7C6FF804689460B98FEF7C1FF06465F
:101698000F465FA3D3E90023FFF712F8CDE9040151
:1016A80002460B46CDE9008940464946FEF750FE02
:1016B800FFF7C8FA82460A98FEF7AAFF80468946CD
:1016C80055A3D3E9002330463946FEF7F9FF06460D
:1016D8000F4602460B4640464946FEF73BFEFFF7DB
:1016E800B1FA05465046FEF793FF00220023FEF7A5
:1016F800E7FFCDE906012846FEF78AFF0A460146BC
:10170800CDE9021213460246DDE90601FEF722FE84
:10171800FFF798FAFEF77CFF3FA3D3E90023FFF712
:10172800F9F8FFF78FFA054632463B4640464946E8
:10173800FEF70EFEFFF786FA06460AF10040FEF7AE
:1017480067FF8046894606F10040FEF761FF0646BE
:101758000F4600220023FEF7B3FF02460B46404621
:101768004946FEF7F7FDFFF76DFAFEF751FF2AA38A
:10177800D3E90023FFF7CEF8FFF764FA8146DDE9E5
:101788000423DDE90001FEF7E5FDFFF75BFA80467B
:1017980000F10040FEF73CFF00220023FEF790FF17
:1017A80002460B4630463946FEF7D4FDFFF74AFAA3
:1017B800FEF72EFF18A3D3E90023FFF7ABF8FFF7D6
:1017C80041FA82464046FEF723FF06460F460022AE
:1017D8000023DDE90201FEF773FF02460B4630469F
:1017E8003946FEF7B7FDFFF72DFAFEF711FF0AA3FA
:1017F800D3E90023FFF78EF8FFF724FA2560C4F831
:101808000490C4F808A0E06020460CB0BDE8F0875A
:10181800CC3B7F669EA0E63FCD3B7F669EA0E63F21
:101828002DE9F04385B0044604A800E90E000198AC
:10183800FEF7EEFE06460F460298FEF7E9FE16A3EF
:10184800D3E90023FEF73CFF0022154BFFF762F8AF
:101858008046894601F092FC02460B4630463946DE
:10186800FEF72EFFFFF7EEF905464046494601F020
:10187800BFFC02460B4630463946FEF721FFFFF70C
:10188800E1F925606060039BA360204605B0BDE8D0
:10189800F08300BFAFF30080182D4454FB210940AA
:1018A8000080664001F53473B3F5B46F09D9B1F51A
:1018B800347F04DC11F5347F03DA384901E04FF452
:1018C80034714138032815D8DFE800F0021C354E82
:1018D80031B9334B1B684FF434721A641A64704779
:1018E800002905DD2E4B1B68196400221A64704715
:1018F800002900DB70474942294B1B6800221A6403
:101908001964704731B9264B1B684FF434721A6456
:101918001A647047002905DD214B1B6819640022F1
:101928001A6470470029E5DA49421D4B1B680022FA
:101938001A641964704731B91A4B1B684FF4347232
:101948001A641A647047002905DD164B1B68196470
:1019580000221A6470470029CCDA4942114B1B68EF
:1019680000221A641964704731B90E4B1B684FF492
:1019780034721A641A647047002905DD094B1B6824
:10198800196400221A6470470029B3DA4942054BEA
:101998001B6800221A641964ACE700BF30FDFFFF22
:1019A800E40200207C01002000B585B00DF1100C88
:1019B8000CE90F0001464120FFF774FF019942200E
:1019C800FFF770FF02994320FFF76CFF039944204B
:1019D800FFF768FF05B05DF804FB70B59AB007AB78
:1019E80083E8070017AC0ECB2046FFF719FF13AEAC
:1019F80094E80E003046FFF73BFE0FAD2846FFF790
:101A080067FD0BAC0DF1040C95E80F008CE80F0096
:101A1800169B009396E80E002046FFF7E1FC94E839
:101A28000F00FFF7C1FF1AB070BD000082B00E4B67
:101A38009A6942F001029A619A6902F001020092E1
:101A4800009ADA6942F08052DA61DB6903F0805368
:101A58000193019B054A536823F0E06343F0007348
:101A6800536002B0704700BF001002400000014000
:101A7800FEE7FEE7FEE7FEE7FEE7704770477047C0
:101A880008B500F081FB08BD0120704708B503F0D8
:101A980087FC162303604FF0FF3008BD08B54FF0F0
:101AA800FF31FFF7F3FFFEE77047000010B58CB079
:101AB80003AC24220021204603F0E2FB002301931B
:101AC800029312484FF080420260436083604FF6F1
:101AD800FF72C260036183610323039301230593AB
:101AE8000993214601F054F948B900230193029360
:101AF80001A9064801F0DAFA20B90CB010BDFFF7C9
:101B080063FDF2E7FFF760FDF7E700BF9C020020E6
:101B180010B58CB003AC24220021204603F0B0FBA2
:101B28000023019302931148114A026043608360C5
:101B38004FF6FF72C260036183610323039301239D
:101B480005930993214601F023F948B9002301932D
:101B5800029301A9054801F0A9FA20B90CB010BDFB
:101B6800FFF732FDF2E7FFF72FFDF7E754020020F9
:101B78000004004010B58CB003AC2422002120469C
:101B880003F07EFB0023019302931148114A02607F
:101B9800436083604FF6FF72C26003618361032371
:101BA8000393012305930993214601F0F1F848B9FD
:101BB80000230193029301A9054801F077FA20B99F
:101BC8000CB010BDFFF700FDF2E7FFF7FDFCF7E7EB
:101BD8000C0200200008004010B58CB003AC242291
:101BE8000021204603F04CFB002301930293114887
:101BF800114A0260436083604FF6FF72C26003615E
:101C0800836103230393012305930993214601F07C
:101C1800BFF848B900230193029301A9054801F0D0
:101C280045FA20B90CB010BDFFF7CEFCF2E7FFF77C
:101C3800CBFCF7E7C4010020000C004082B0036829
:101C48000E4A934204D00E4A93420CD002B0704719
:101C58000C4B9A6942F400629A619B6903F4006331
:101C68000093009BF2E7074B9A6942F400529A618D
:101C78009B6903F400530193019BE7E7002C0140A3
:101C8800003401400010024010B58EB000230A93C2
:101C98000B930C930D930368B3F1804F0AD04C4A11
:101CA80093423FD04B4A934256D04B4A934275D009
:101CB8000EB010BD03F50433DA6942F00102DA61AF
:101CC800DA6902F001020192019A9A6942F004026B
:101CD8009A619A6902F004020292029A9A6942F0A1
:101CE80008029A619B6903F008030393039B4FF46E
:101CF80000430A930AAC2146384800F0C1FA082389
:101D08000A9300230B930C932146354800F0B8FA48
:101D1800344A536823F4407343F0E06343F4807318
:101D28005360C5E7304BDA6942F00202DA61DA69DA
:101D380002F002020492049A9A6942F004029A613B
:101D48009B6903F004030593059BC0230A930AA922
:101D5800224800F095FAABE7234BDA6942F0040217
:101D6800DA61DA6902F004020692069A9A6942F088
:101D780020029A619B6903F020030793079B4FF4A5
:101D880040530A930AA9194800F07AFA154A536889
:101D980043F0E06343F48053536089E7124BDA69F8
:101DA80042F00802DA61DA6902F008020892089A39
:101DB8009A6942F004029A619B6903F0040309934B
:101DC800099B03230A930AA9044800F059FA6FE70C
:101DD8000004004000080040000C004000080140DA
:101DE800000C0140000001400010024000140140B6
:101DF80000B587B000230293039304930593036807
:101E08001C4A934205D01C4A93421ED007B05DF885
:101E180004FB1A4B9A6942F040029A619B6903F0ED
:101E280040030093009B4FF4D4430293022303938F
:101E3800059302A9124800F023FA124A536843F0A6
:101E4800E06343F0C0035360E0E70C4B9A6942F04B
:101E580010029A619B6903F010030193019B4FF4F0
:101E68007073029302230393059302A9064800F0B6
:101E780007FACBE7002C0140003401400010024073
:101E880000180140000001400010014010B596B054
:101E98000024129413941494159410941194099492
:101EA8000A940B940C940D940E940F9420222146BE
:101EB80001A803F0E5F93B483B4B0360042343606A
:101EC800846040F2CF23C36004614461846100F000
:101ED80007FF00284BD14FF48053129312A93148C1
:101EE80001F064F8002845D12E4800F025FF0028AD
:101EF80043D100231093119310A92A4801F0D6F872
:101F080000283DD16023099300220A920B920C927B
:101F18000D920E920F9209A9224800F0CDFF0028D9
:101F280031D1042209A91F4800F0C6FF70BB08225E
:101F380009A91C4800F0C0FF58BB0C2209A9194880
:101F480000F0BAFF40BB002301930293039304936C
:101F580005934FF400520692089301A9114801F025
:101F6800E3F8E0B90F48FFF743FF16B010BDFFF7DD
:101F78002BFBB0E7FFF728FBB6E7FFF725FBB8E731
:101F8800FFF722FBBEE7FFF71FFBCAE7FFF71CFBC3
:101F9800CDE7FFF719FBD0E7FFF716FBD3E7FFF70D
:101FA80013FBDFE7E4020020002C014010B596B0D7
:101FB8000024129413941494159410941194099471
:101FC8000A940B940C940D940E940F94202221469D
:101FD80001A803F055F93B483B4B036004234360D9
:101FE800846040F2CF23C36004614461846100F0DF
:101FF80077FE00284BD14FF48053129312A9314831
:1020080000F0D4FF002845D12E4800F095FE0028A6
:1020180043D100231093119310A92A4801F046F8E0
:1020280000283DD16023099300220A920B920C925A
:102038000D920E920F9209A9224800F03DFF002848
:1020480031D1042209A91F4800F036FF70BB0822CD
:1020580009A91C4800F030FF58BB0C2209A91948EF
:1020680000F02AFF40BB00230193029303930493DB
:1020780005934FF400520692089301A9114801F004
:1020880053F8E0B90F48FFF7B3FE16B010BDFFF7DD
:102098009BFAB0E7FFF798FAB6E7FFF795FAB8E7C3
:1020A800FFF792FABEE7FFF78FFACAE7FFF78CFA55
:1020B800CDE7FFF789FAD0E7FFF786FAD3E7FFF70E
:1020C80083FADFE77C01002000340140FFF7ECFCD5
:1020D8000B480C490C4A002302E0D458C45004337E
:1020E800C4188C42F9D3094A094C002301E0136053
:1020F8000432A242FBD303F059F9FFF799FA70476B
:102108000000002054010020A857000854010020B6
:1021180004060020FEE7000010B504460E4B1A78AE
:102128004FF47A73B3FBF2F30C4A1068B0FBF3F088
:1021380000F092F868B90F2C01D901200AE00022BA
:1021480021464FF0FF3000F077F8054B1C60002067
:1021580000E0012010BD00BF0400002000000020A6
:102168000800002008B5074A136843F010031360FD
:10217800032000F04FF80F20FFF7CEFFFFF756FCC3
:10218800002008BD00200240034A1168034B1B7859
:102198000B441360704700BF2C030020040000208C
:1021A800014B1868704700BF2C030020002808DB8B
:1021B8000901C9B200F1604000F5614080F80013E0
:1021C800704700F00F000901C9B2014B195470475C
:1021D80014ED00E000B500F00700C0F1070CBCF1F9
:1021E800040F28BF4FF0040C031D062B0FD9C31E84
:1021F8004FF0FF3E0EFA0CF021EA000199400EFA6A
:1022080003FE22EA0E0241EA02005DF804FB002305
:10221800EEE70000074AD36823F4E0631B041B0CB5
:10222800000200F4E060034343F0BF6343F400336B
:10223800D360704700ED00E010B50446054BD86840
:10224800C0F30220FFF7C6FF01462046FFF7AEFFA6
:1022580010BD00BF00ED00E00138B0F1807F0BD267
:102268004FF0E0235861054AF02182F8231000203E
:10227800986107221A6170470120704700ED00E05D
:1022880070B582B00024A446A8E0834DAB4214D0B8
:102298000CD8A5F58015AB420FD005F57025AB42DB
:1022A8000BD0A5F58015AB421FD106E07B4DAB42A4
:1022B80003D005F58035AB4217D18B68A3B1012B4C
:1022C8000DD04261082410E0CC680EE0CC680434DC
:1022D8000BE0CC68083408E0CC680C3405E00261F7
:1022E800082402E0002400E00424BEF1FF0F41D8D6
:1022F80006464FEA8C0233680F25954023EA05030A
:1023080004FA02F2134333604B6813F0805F63D022
:10231800634B9A6942F001029A619B6903F00103D9
:102328000193019B4FEA9C02951C5E4B53F8256074
:102338000CF00305AD000F23AB4026EA03065A4B09
:1023480098421ED003F58063984200F0838003F51D
:102358008063984200F0808003F5806398427DD0C6
:1023680003F5806398427BD003F58063984206D0DA
:10237800062307E0061DACF108029200BBE705231F
:1023880000E00023AB4033430232464D45F822308B
:102398004B6813F4801F65D0444A936843EA0E03E0
:1023A80093604B6813F4001F62D0404AD36843EA35
:1023B8000E03D3604B6813F4003F5FD03B4A536869
:1023C80043EA0E0353604B6813F4803F5CD0374AEE
:1023D800136843EA0E0313600CF1010C0B6833FA1F
:1023E8000CF257D0012202FA0CF203EA020E32EA8A
:1023F8000303F1D14B68122B3FF647AF122B3FF680
:1024080074AF01A555F823F0C3220008D1220008B3
:10241800DB220008ED220008F3220008F32200085E
:10242800F3220008F3220008F3220008F322000830
:10243800F3220008F3220008F3220008F322000820
:10244800F3220008F3220008F3220008D52200082E
:10245800E1220008012395E7022393E7032391E78C
:1024680004238FE7114A936823EA0E03936098E7E1
:102478000E4AD36823EA0E03D3609BE70B4A5368DE
:1024880023EA0E0353609EE7084A136823EA0E0303
:102498001360A1E702B070BD0000221000003110E7
:1024A8000010024000000140000801400004014003
:1024B80082B0084B1B68084AA2FB03235B0A00FB97
:1024C80003F3019300BF019B5A1E0192002BF9D11F
:1024D80002B0704700000020D34D6210002800F0C1
:1024E800F18170B582B00446036813F0010F2CD057
:1024F800994B5B6803F00C03042B1DD0964B5B686B
:1025080003F00C03082B12D06368B3F5803F41D069
:10251800002B55D103F1804303F504331A6822F4E4
:1025280080321A601A6822F480221A6037E08A4BD7
:102538005B6813F4803FE7D0874B1B6813F4003FB8
:1025480003D06368002B00F0BF81236813F0020FEB
:1025580075D0814B5B6813F00C0F5FD07E4B5B68C6
:1025680003F00C03082B54D02369002B00F08A8059
:102578007A4B01221A60FFF713FE0546764B1B685B
:1025880013F0020F75D1FFF70BFE401B0228F5D997
:1025980003209EE1704A136843F480331360636834
:1025A80043B3FFF7FDFD05466B4B1B6813F4003F73
:1025B800CBD1FFF7F5FD401B6428F5D9032088E14E
:1025C800B3F5A02F09D0644B1A6822F480321A6040
:1025D8001A6822F480221A60E1E703F18043A3F528
:1025E8003C331A6842F480221A601A6842F4803236
:1025F8001A60D4E7FFF7D4FD0546574B1B6813F460
:10260800003FA2D0FFF7CCFD401B6428F5D903207A
:102618005FE1514B5B6813F4803FA5D14E4B1B68BB
:1026280013F0020F03D02369012B40F04F814A4A6F
:10263800136823F0F803616943EAC1031360236850
:1026480013F0080F33D0A369002B5CD0434B012251
:10265800C3F88024FFF7A4FD05463F4B5B6A13F0DF
:10266800020F21D1FFF79CFD401B0228F5D903205A
:102678002FE1394A136823F0F803616943EAC1037B
:102688001360DCE7354B00221A60FFF789FD054629
:10269800314B1B6813F0020FD1D0FFF781FD401BAF
:1026A8000228F5D9032014E10120FFF701FF236870
:1026B80013F0040F00F09680274BDB6913F0805F5E
:1026C80034D1254BDA6942F08052DA61DB6903F0D4
:1026D80080530193019B0125214B1B6813F4807FD4
:1026E80026D0E368012B3DD0002B53D103F1804362
:1026F80003F504331A6A22F001021A621A6A22F0F8
:1027080004021A6233E0154B0022C3F88024FFF755
:1027180047FD0546104B5B6A13F0020FC7D0FFF761
:102728003FFD401B0228F5D90320D2E00025D3E75E
:102738000B4A136843F480731360FFF731FD0646B4
:10274800074B1B6813F4807FCBD1FFF729FD801B53
:102758006428F5D90320BCE0001002400000424282
:10276800007000405F4A136A43F001031362E36894
:1027780033B3FFF715FD06465A4B1B6A13F0020FD9
:102788002FD1FFF70DFD801B41F288339842F3D912
:1027980003209EE0052B09D0524B1A6A22F0010251
:1027A8001A621A6A22F004021A62E0E74D4B1A6AAA
:1027B80042F004021A621A6A42F001021A62D6E76B
:1027C800FFF7EEFC0646474B1B6A13F0020F08D0D2
:1027D800FFF7E6FC801B41F288339842F3D90320C7
:1027E80077E0E5B9E369002B72D03E4A526802F0FF
:1027F8000C02082A56D0022B17D03B4B00221A662F
:10280800FFF7CEFC0446374B1B6813F0007F47D018
:10281800FFF7C6FC001B0228F5D9032059E0314A0E
:10282800D36923F08053D361DCE72F4B00221A666B
:10283800FFF7B6FC05462B4B1B6813F0007F06D04C
:10284800FFF7AEFC401B0228F5D9032041E0236ABC
:10285800B3F5803F1AD023494B6823F47413226AD6
:10286800606A024313434B601F4B01221A66FFF74D
:1028780097FC04461B4B1B6813F0007F0ED1FFF733
:102888008FFC001B0228F5D9032022E0154A536863
:1028980023F40033A1680B435360DCE7002018E001
:1028A800002016E0012B16D00E4B5B6803F4803134
:1028B800226A914211D103F47013626A93420ED1D5
:1028C800002006E001207047012002E0012000E01E
:1028D800002002B070BD0120FBE70120F9E70120CC
:1028E800F7E700BF00100240000042420F4B5B6850
:1028F80003F00C02082A01D00D487047C3F3834245
:102908000C49885C13F4803F0BD0084B5B68C3F319
:102918004043094AD35C064A02FB00F0B0FBF3F0DF
:102928007047064B03FB00F0704700BF00100240E1
:1029380000127A00045500080055000800093D00FF
:10294800002800F0A08070B50D460446524B1B6865
:1029580003F007038B420BD24F4A136823F0070397
:102968000B431360136803F007038B4240F08D801C
:10297800236813F0020F17D013F0040F04D0474A4E
:10298800536843F4E0635360236813F0080F04D0DE
:10299800424A536843F460535360404A536823F0F3
:1029A800F003A1680B435360236813F0010F31D083
:1029B8006368012B20D0022B25D0384A126812F008
:1029C800020F64D035494A6822F0030213434B6072
:1029D800FFF7E6FB0646314B5B6803F00C036268C1
:1029E800B3EB820F16D0FFF7DBFB801B41F2883375
:1029F8009842F0D9032045E0284A126812F4003FB3
:102A0800E0D101203EE0254A126812F0007FD9D1BA
:102A1800012037E0204B1B6803F00703AB420AD9BB
:102A28001D4A136823F007032B431360136803F050
:102A38000703AB422DD1236813F0040F06D0174AC1
:102A4800536823F4E063E1680B435360236813F091
:102A5800080F07D0114A536823F46053216943EAE9
:102A6800C1035360FFF742FF0C4B5B68C3F30313CA
:102A78000B4AD35CD8400B4B18600B4B1868FFF718
:102A88004BFB002070BD012070470120FAE70120B0
:102A9800F8E70120F6E700BF0020024000100240DE
:102AA800F0540008000000200800002030B4036A39
:102AB800026A22F0010202624268846924F0730CFF
:102AC8000C6844EA0C0423F0020C8B6843EA0C03FC
:102AD800114DA84203D005F50065A84205D123F0A1
:102AE8000803CD682B4323F004030B4DA84203D001
:102AF80005F50065A84207D122F440724D6945EA00
:102B0800020C8A6942EA0C02426084614A684263A4
:102B1800036230BC704700BF002C014030B4036A28
:102B2800026A22F4807202624268C46924F0730C5B
:102B38000C6844EA0C0523F400738C6843EA042308
:102B4800114CA04203D004F50064A04206D123F43E
:102B58000063CC6843EA042323F480630A4CA04250
:102B680003D004F50064A04207D122F440524C6916
:102B780042EA04128C6942EA04124260C5614A685A
:102B8800C263036230BC7047002C014030B4036A52
:102B9800026A22F4805202624468C26922F4E64260
:102BA8000D6842EA052223F400538D6843EA053391
:102BB800094DA84203D005F50065A84204D124F4C4
:102BC80080444D6944EA85144460C2614A680264DD
:102BD800036230BC704700BF002C014010B4036A88
:102BE800046A24F001040462846924F0F00C4CEABD
:102BF800021223F00A030B438261036210BC704780
:102C080010B4036A046A24F010040462846924F48A
:102C1800704C4CEA023223F0A00343EA01138261AC
:102C2800036210BC7047836823F070030B4343F0C2
:102C380007038360704770470368284A904212D0A0
:102C480002F5006290420ED0B0F1804F0BD0A2F591
:102C58009832904207D002F58062904203D002F584
:102C68008062904203D123F070034A6813431B4AE1
:102C7800904212D002F5006290420ED0B0F1804F1F
:102C88000BD0A2F59832904207D002F580629042AC
:102C980003D002F58062904203D123F44073CA68DE
:102CA800134323F080034A69134303608B68C362AC
:102CB8000B688362094B984203D003F5006398427E
:102CC80001D10B69036301234361036913F0010F09
:102CD80003D0036923F0010303617047002C01400E
:102CE80040B310B5044690F83D30F3B1022384F8A0
:102CF8003D30214651F8040BFFF79EFF012384F86D
:102D0800463084F83E3084F83F3084F8403084F808
:102D1800413084F8423084F8433084F8443084F8F1
:102D2800453084F83D30002010BD80F83C30FEF777
:102D380085FFDBE70120704740B310B5044690F8E3
:102D48003D30F3B1022384F83D30214651F8040B9D
:102D5800FFF772FF012384F8463084F83E3084F888
:102D68003F3084F8403084F8413084F8423084F8A9
:102D7800433084F8443084F8453084F83D300020EE
:102D880010BD80F83C30FFF756FFDBE701207047A5
:102D9800002856D070B50D46044690F83D30002BFB
:102DA8004AD0022384F83D302268936823F4804394
:102DB80023F007039360214651F8040BFFF73CFF0B
:102DC80021688B688A690E6A2868184322F4407261
:102DD80022F00302AB68D5F818C043EA0C2313436A
:102DE80023F47C4323F0FC03EA68D5F81CC042EACC
:102DF8000C221A432B6A1B03D5F810C043EA0C13A4
:102E0800134326F022066A686D6942EA05123243C6
:102E1800886021688B6123681A62012384F8463030
:102E280084F83E3084F83F3084F8423084F84330E8
:102E380084F83D30002070BD80F83C30FEF724FF58
:102E4800AFE701207047000030B4036A026A22F03D
:102E5800100202624468826922F4E6420D6842EA7E
:102E6800052223F020038D6843EA0513114DA8427B
:102E780003D005F50065A84206D123F08003CD688C
:102E880043EA051323F040030A4DA84203D005F591
:102E98000065A84207D124F440644D6944EA8504DA
:102EA8008D6944EA8504446082614A6882630362EA
:102EB80030BC7047002C014038B590F83C30012BED
:102EC80066D004460D46012380F83C300C2A5AD8B7
:102ED800DFE802F0075959591B59595930595959BE
:102EE80044000068FFF7E2FD2268936943F0080395
:102EF80093612268936923F00403936122689369BC
:102F080029690B43936100203EE00068FFF79CFFAE
:102F18002268936943F4006393612268936923F4F8
:102F28008063936122689369296943EA0123936165
:102F3800002029E00068FFF7F1FD2268D36943F01B
:102F48000803D3612268D36923F00403D36122689C
:102F5800D36929690B43D361002015E00068FFF7A6
:102F680015FE2268D36943F40063D3612268D369EC
:102F780023F48063D3612268D369296943EA012372
:102F8800D361002000E00120002384F83C3038BDE4
:102F98000220FCE710B4846824F47F4C42EA032240
:102FA8000A4342EA0C02826010BC704790F83C3039
:102FB800012B78D010B50446012380F83C30022359
:102FC80080F83D300268936823F47F4323F0770349
:102FD80093600B68602B4CD023D8402B54D011D869
:102FE800202B03D00AD80BB1102B05D11946206825
:102FF800FFF719FE002028E0012026E0302BF5D04D
:10300800012022E0502B0AD1CA6849680068FFF7FE
:10301800E5FD50212068FFF706FE002015E001209D
:1030280013E0B3F5805F3AD0B3F5005F14D0702B8E
:1030380037D1CB684A6889680068FFF7ABFF226818
:10304800936843F0770393600020012384F83D30B0
:10305800002384F83C3010BDCB684A688968006852
:10306800FFF798FF2268936843F480439360002039
:10307800EBE7CA6849680068FFF7C2FD602120686D
:10308800FFF7D1FD0020E0E7CA6849680068FFF74C
:10309800A5FD40212068FFF7C6FD0020D5E70020E8
:1030A800D3E70120D1E702207047000090F83C20C8
:1030B800012A34D010B40346012280F83C200222B1
:1030C80080F83D2002685068946820F0700C086809
:1030D80040EA0C0050601A681248824212D000F58B
:1030E800006082420ED0B2F1804F0BD0A0F598302C
:1030F800824207D000F58060824203D000F58060EC
:10310800824204D124F0800449682143916001225D
:1031180083F83D20002083F83C0010BC7047022053
:10312800704700BF002C0140024690F83C30012B4C
:1031380021D0012380F83C30CB6823F440738868A1
:10314800034323F480634868034323F40063086857
:10315800034323F480530869034323F40053486965
:10316800034323F48043C9690B4311684B6400206F
:1031780082F83C0070470220704700001A4A21F08C
:10318800004393421CD930B5184A87B0934205D9F9
:1031980002460B46FDF7DCF807B030BD02AA00F086
:1031A8004FFADDE904230446DDE9020104F00304D3
:1031B800012C0FD0022C07D084B900F061F8EBE79E
:1031C8000022002300F05CB800F05AF801F1004139
:1031D80007B030BD009400F07BF9F7E701240094B4
:1031E80000F076F9D8E700BFFB21E93FFFFFEF7F4A
:1031F80070B5204A21F00043934286B01ED91E4A7A
:10320800934205D902460B46FDF7A2F806B070BDF9
:1032180002AA00F015FADDE904450346DDE90201DA
:1032280003F00303012B1BD0022B0FD0EBB90126AF
:1032380022462B46009600F04BF9E7E700240022CF
:103248000023009400F044F906B070BD0126224620
:103258002B46009600F03CF901F1004106B070BD24
:1032680022462B4600F00CF8D0E722462B4600F009
:1032780007F8F1E7FB21E93FFFFFEF7F00000000BF
:103288002DE9F04F21F00048B8F1795F06460F4666
:1032980092469B4685B06DD2FDF7ACFC002800F045
:1032A800ED8032463B4630463946FDF709FA76A3AB
:1032B800D3E9002304460D46FDF702FA74A3D3E9C7
:1032C8000023FDF747F822462B46FDF7F9F972A3CC
:1032D800D3E90023FDF73CF822462B46FDF7F0F929
:1032E8006FA3D3E90023FDF735F822462B46FDF7F7
:1032F800E7F96DA3D3E90023FDF72AF822462B4608
:10330800FDF7DEF96AA3D3E90023FDF723F8224687
:103318002B46FDF7D5F9CDE90001002220462946C4
:10332800654BFDF7CDF9DDE9002380468946204647
:103338002946FDF7C5F944464D468046894652461A
:103348005B4630463946FDF7BBF902460B46404618
:103358004946FCF7FDFF02460B4620462946FCF786
:10336800F7FF02460B4600205449FCF7F1FF05B071
:10337800BDE8F08F02460B46FDF7A2F942A3D3E958
:10338800002304460D46FDF79BF941A3D3E900232A
:10339800FCF7E0FF22462B46FDF792F93EA3D3E95E
:1033A8000023FCF7D5FF22462B46FDF789F93CA3FD
:1033B800D3E90023FCF7CEFF22462B46FDF780F920
:1033C80039A3D3E90023FCF7C3FF22462B46FDF7B8
:1033D80077F937A3D3E90023FCF7BCFF2B46224635
:1033E800FDF76EF9364BCDE90001984595D9354B77
:1033F800002298453AD8A8F5001300202F49904696
:103408009946FCF7A5FFCDE902010022204629468E
:10341800294BFDF755F942464B46FCF799FFDDE984
:1034280000238046894620462946FDF749F9444647
:103438004D468046894652465B4630463946FDF73A
:103448003FF902460B4640464946FCF781FF0246D3
:103458000B4620462946FCF77BFF02460B46DDE972
:103468000201FCF775FF05B0BDE8F08F164B4FF071
:103478000008CDE90223DFF85490C6E700200F4981
:1034880005B0BDE8F08F00BFD43888BEE9FAA8BD02
:10349800C4B1B4BD9EEE213EAD529C804F7E923E9B
:1034A8009015CB19A001FA3E7751C1166CC1563F51
:1034B8004C5555555555A53F0000E03F0000F03FDD
:1034C8003233D33F0000E93F0000E73F0000D23F1E
:1034D8002DE9F04F83B0CDE9002321F00043B3F18B
:1034E800795F04460D4604D2FDF784FB002800F0FE
:1034F800858022462B4620462946FDF7E1F80646F8
:103508000F4632463B4620462946FDF7D9F83EA3EA
:10351800D3E9002382468B4630463946FDF7D0F87A
:103528003BA3D3E90023FCF713FF32463B46FDF7E4
:10353800C7F839A3D3E90023FCF70CFF32463B4612
:10354800FDF7BEF836A3D3E90023FCF701FF3246A6
:103558003B46FDF7B5F834A3D3E90023FCF7FAFEA0
:103568000C9B804689469BB3DDE900010022324B63
:10357800FDF7A6F842464B468046894650465946CE
:10358800FDF79EF802460B4640464946FCF7E0FE2A
:1035980032463B46FDF794F8DDE90023FCF7D8FEF8
:1035A80023A3D3E9002306460F4650465946FDF7A4
:1035B80087F802460B4630463946FCF7CBFE0246F2
:1035C8000B4620462946FCF7C3FE03B0BDE8F08F42
:1035D80002460B4630463946FDF772F814A3D3E984
:1035E8000023FCF7B5FE52465B46FDF769F8224614
:1035F8002B46FCF7AFFE03B0BDE8F08F2046294606
:1036080003B0BDE8F08F00BF7CD5CF5A3AD9E53D6D
:10361800EB9C2B8AE6E55A3E7DFEB157E31DC73E7B
:10362800D561C119A0012A3FA6F810111111813FD7
:10363800495555555555C53F0000E03F000000006D
:103648002DE9F04F964B21F000459D4282468B466E
:1036580014468FB040F28B80924B0F469D4228D87B
:1036680085A3D3E90023002940F3A081FCF770FE6D
:103678008D4B06469D420F4600F08D8080A3D3E90E
:103688000023FCF765FE02460B46304639461646CF
:103698001F46FCF75DFE7AA3D3E90023FCF758FE2A
:1036A800C4E900670126C4E9020130460FB0BDE84D
:1036B800F08F7E4B9D4240F288807D4B9D4261D8C1
:1036C8002E15A6F21646A5EB065949465046FDF7B3
:1036D80091FAFCF78BFF02460B4650464946CDE966
:1036E8000823FCF735FE0022724BFCF7E9FF8946F8
:1036F8008046FDF77FFAFCF779FF02460B46404605
:103708004946CDE90A23FCF723FE0022694BFCF762
:10371800D7FF03254FF000084FF00009CDE90C0151
:103728000DF1380A42467AE902014B46AB46013DA3
:10373800FDF72EFA0028F5D102255F49324601919E
:103748005B46214608A8009500F084F9002F06463C
:10375800ABDA60682268E16800F10043C4E900233D
:10376800A26801F10043C4E9022376429DE70022E2
:103778000023C4E900ABC4E90223002630460FB099
:10378800BDE8F08F02460B46FCF7E2FDC4E90201F2
:10379800C4E90001F1E73CA3D3E90023FCF7D8FD15
:1037A8003BA3D3E9002380468946FCF7D1FD0646B2
:1037B8000F4632463B4640464946FCF7C9FD34A30E
:1037C800D3E90023FCF7C4FD6AE700F03FF932A310
:1037D800D3E9002380468946FCF772FF0022374B65
:1037E800FCF7B8FDFDF706FA0646FCF7FFFE0246B1
:1037F8000B46CDE9022320A3D3E90023FCF760FFA1
:1038080002460B4640464946FCF7A2FD1CA3D3E9F5
:10381800002382468B46DDE90201FCF751FF024690
:103828000B4650465946CDE90423FCF791FD1F2E5F
:103838008046894646DC224B721E53F82230AB4242
:1038480040D042464B4650465946C4E90089FCF7E9
:103858007FFDDDE90423FCF77BFD002FC4E90201AD
:10386800BFF623AF09F10042C4E9008201F100422A
:10387800C4E90202764218E700004054FB21F93FF0
:103888003163621A61B4D03D0000601A61B4D03D62
:103898007370032E8A19A33B83C8C96D305FE43F58
:1038A800FB21E93F7BD90240FB21F93FFB2139414C
:1038B800FFFFEF7F00007041945500080000E03FD3
:1038C80014550008C9F30A53C3EB15532A15102BD6
:1038D8000792B6DD52A3D3E90023DDE90201FCF724
:1038E800EFFE8046894642464B4650465946FCF70D
:1038F8002FFD02460B465046594692469B46FCF71A
:1039080027FD42464B46FCF723FD47A3D3E9002396
:1039180080468946DDE90201FCF7D2FE42464B4665
:10392800FCF716FD02460B4650465946CDE90423DE
:10393800FCF70EFD079AC1F30A53D31A312B8046C0
:1039480089467FF77EAF3AA3D3E90023DDE9020178
:10395800FCF7B6FE8046894642464B4650465946D5
:10396800FCF7F6FC02460B465046594692469B46E3
:10397800FCF7EEFC42464B46FCF7EAFC2EA3D3E9E3
:10398800002380468946DDE90201FCF799FE42469C
:103998004B46FCF7DDFC02460B4650465946CDE93E
:1039A8000423FCF7D5FC804689464AE7FCF7D2FC9D
:1039B800254B06469D420F4618D021A3D3E9002384
:1039C800FCF7C8FC02460B463046394616461F46E9
:1039D800FCF7BEFC1AA3D3E90023FCF7BBFCC4E93F
:1039E8000067C4E902014FF0FF365EE60CA3D3E995
:1039F8000023FCF7AFFC0CA3D3E9002380468946DB
:103A0800FCF7A8FC06460F4632463B464046494668
:103A1800FCF79EFC04A3D3E90023FCF79BFCDEE73C
:103A28000000601A61B4D03D7370032E8A19A33B5D
:103A38000000002E8A19A33BC14920259A837B39AF
:103A48003163621A61B4D03DFB21F93F21F0004394
:103A5800194670472DE9F04FADF5197DBF4CA29D71
:103A68009C4612F1140F03F1FF33824654F8256087
:103A78000B910293C0F2BC82B949D31E81FB0301AA
:103A8800DB17C3EBA10307930133A3EB8303DB002D
:103A9800D3180A93079A0CF1FF3316EB0309A2EB2C
:103AA800030721D409F10109B9440DF180080096F2
:103AB80000244E460025C146DDF88CB2E04608E0F9
:103AC8005BF82700FCF792FD0137B742E9E80201ED
:103AD80008D0002FF4DA204629460137B742E9E832
:103AE8000201F6D1C446009E002EC0F2AE83029CAD
:103AF800AAF10801039101EBCC09A346002000219B
:103B08000DF1800A0AEBCC0A70AB4FEACC0706EB42
:103B18000C02002C80F295810BF1010B9345E3E830
:103B280002010AF1080AF4D1039B009603EB070A85
:103B38000CAB03EB8603043B08930CAB03EB860347
:103B4800D3461F4604960A9ECDF824C00099CA00A1
:103B58000DEBC10300290192D3E970452DDDCDE9B4
:103B680005670DF5E07A0DF130090AEB020800222D
:103B78007C4B20462946FCF7A3FDFDF73BF8FCF7F4
:103B880035FD0022784B06460F46FCF799FD0246A4
:103B98000B4620462946FCF7DBFBFDF72BF878E9B6
:103BA800022349F8040B39463046FCF7D3FBD045CD
:103BB80004460D46DBD1DDE9056720462946324635
:103BC80000F07EFB00224FF07F5304460D46FCF7C1
:103BD80077FD00F0F5FB0022644BFCF771FD02460F
:103BE8000B4620462946FCF7B3FB0D460446FDF775
:103BF80001F88246FCF7FAFC02460B4620462946A5
:103C0800FCF7A6FB002E8046894640F38A80009B7D
:103C1800C6F11802591E0CAB53F82130C6F117042F
:103C280043FA02F000FA02F29B1A43FA04F40CAACF
:103C3800002C824442F8213000F3F1800022002356
:103C480040464946FCF7A4FF002800F01382009B79
:103C5800049A93420CDD00220CA901EB830353F86C
:103C6800041DBB4242EA0102F9D1002A40F0118149
:103C7800049B0CAA013B52F82330009A02F1010878
:103C8800002B40F0DC800123089A52F8041D013310
:103C98000029FAD0009A1344009A09990DF1800975
:103CA8000A44079909EBC20901EB080A0AF1804A9C
:103CB800A3990AF1FF3A01EB8A0A019970AA114403
:103CC80000910596019306975AF8040FFCF78EFCAD
:103CD800029BE9E80201002B20DB4F460024002567
:103CE800039E77E90223F6E90201FCF7E9FC0246A4
:103CF8000B4620462946FCF72DFB5E4504460D463B
:103D0800EFD1009B08F10108E3E902450093019B0C
:103D18009845D9DDDDE90567009317E700240025FC
:103D2800EFE762D00022124BFCF750FF0446002850
:103D380084D0009B0AF1010A002BC8BF022440F37B
:103D48007A8200210CAB53F8045B002D48D0C5F1F2
:103D580080756FF07F4043F8045C0FE0E056000880
:103D6800ABAAAA2A0000703E000070410000204063
:103D78000000E03F1A68821A43F8042B009A0131C8
:103D88008A42F7DC0125002E0EDD012E00F0258188
:103D9800022E09D1009B0CA95A1E0CAB53F82230F5
:103DA800C3F3150341F82230022C7FF447AF424693
:103DB8004B460020AC49FCF7CBFA80468946002DDB
:103DC8003FF43CAF32460020A74900F079FA02469A
:103DD8000B4640464946FCF7BBFA804689462DE724
:103DE800009A01318A42AEDCCDE7009B0CAA013B68
:103DF80052F82340E415002C7FF720AF009B0AF10E
:103E0800010A002B9DDC022C7FF418AF42464B467A
:103E180000209549FCF79CFA804689460EE7009AEF
:103E28000AF1010A002A8CDC012E00F01E82022E03
:103E3800E9D1C3F315030CAA42F82130E3E743465E
:103E48002AE7D846D3469A46CDE904C70196009298
:103E58005F4600240025039E77E90223F6E9020164
:103E6800FCF72EFC02460B4620462946FCF772FA60
:103E78004E4504460D46EFD1009B08F101089845D0
:103E8800EAE802450BF1080BE2D1DDE904C7019E1F
:103E98004AE60A9B009FA3F1180203940CAB7C1E10
:103EA80053F82430049ECDF814A00A9263B907F1A0
:103EB8008043013B0CA901EB830353F8041D013C2B
:103EC800183A0029F9D00A9200200A9A664900F0A7
:103ED800F7F9002C80468946C0F2BD814FF0000AF0
:103EE800671C0CAB03EB8705F90070ABDFF87CB1FE
:103EF80003EBC707009155F8040DFCF777FB424622
:103F08004B46FCF7DDFB5B4667E90201524640463B
:103F18004946FCF7D5FB0CAB9D4280468946EAD161
:103F2800009948A8A1F1100370AA002E01944FF03F
:103F3800000B044602901A44049128DB924600259F
:103F48004FF000084FF00009494F009210E0FAE9DD
:103F58000223F7E90201FCF7B3FB02460B46404691
:103F68004946FCF7F7F90135AE428046894601DB40
:103F78005D45ECDD009A019BE4E802899B45A2F1CE
:103F880008020BF1010107D0002E8B46D6DA4FF05C
:103F980000084FF00009EEE7A29B019C022B049950
:103FA80000F39D80002B28DC10D1029D00206C18A6
:103FB800002174E90223FCF7CDF9A542F9D1039B4E
:103FC800002B40F027810B9BC3E90001059B03F000
:103FD80007000DF5197DBDE8F08F009B0CA95A1E4E
:103FE8000CAB53F82230C3F3160341F82230DBE65A
:103FF80000216FF0170307914AE5029B0026DDE9CF
:10400800488900279A465D18304675E902233946E3
:10401800FCF7A0F9AA4506460F46F5D1039B404692
:104028004946002B40F0FA803B463246FCF790F9AF
:104038000B9BC3E9006764B10126F5E90223013649
:10404800FCF788F9B442F8DA039B13B101F1004395
:1040580019460B9BC3E90201059B03F007000DF508
:10406800197DBDE8F08F00BF0000F03F0000703EF2
:10407800985600080A9B40465A424946009F049EAB
:10408800CDF814A0039400F01BF90022884B804659
:104098008946FCF79BFD002800F09D800022854B97
:1040A80040464946FCF70CFBFCF7A4FD0546FCF727
:1040B8009DFA00227E4BFCF703FB0B46024649465D
:1040C8004046FCF745F9FCF795FD7C1C0CAB43F822
:1040D800270043F824500A9B18330A93F4E6A29B5E
:1040E800032B7FF473AF002C00F0CE80029B4FEAC5
:1040F800C40903EBC405A846D5E90067CDE9005417
:10410800049558E902453046394622462B46FCF7C5
:1041180021F9B246BB4606460F4632463B46204684
:104128002946FCF715F95B465246FCF713F9C8E92E
:10413800000168E90267029B9845E2D1DDE900A425
:10414800012C049D00F0A080D5E9004503F1080B7F
:10415800CDF800905AE902672046294632463B4688
:10416800FCF7F8F8A046A94604460D4622462B4619
:1041780030463946FCF7ECF842464B46FCF7EAF87D
:10418800CAE900016AE90245D345E3D100200021CC
:10419800DDF80090029B09F108041C4403F11005A6
:1041A80074E90223FCF7D6F8A542F9D1DDE94856AF
:1041B800029BD3E90278039BB3B90B9BC3E90401C3
:1041C800C3E90056C3E90278059B03F007000DF523
:1041D800197DBDE8F08F40464946FCF70BFD0CAB56
:1041E8003C4643F827006FE60B9B2C4606F100453A
:1041F8005D601D461C6008F10043C5E90273059B1C
:1042080001F10042C5E9040203F007000DF5197D2C
:10421800BDE8F08F01F100431946D4E60B9A07F187
:104228000043536016603B463246FCF791F8002C79
:104238007FF402AF0AE742464B4600201E49FCF7CE
:1042480087F8022480468946F8E4AAF10803039314
:104258004FEACC0768E4A29B022B0FDC002B16DC8C
:104268007FF4B4AE00200021A9E6C3F316030CAA1C
:10427800022C42F821307FF4E1ACC7E5A29B032B66
:104288007FF4A4AE48AB0293002000218EE7039B85
:10429800DDE9480133B100224FF000430B9CC4E92B
:1042A8000023D3E6002200230B9CC4E90023D0E6B8
:1042B800000070410000703E0000F03F0000000068
:1042C8002DE9F0411646C1F30A52074688460B46C7
:1042D8006ABB21F00043034327D0334B0022FCF78D
:1042E800EFF9324B07469E4288463CDB0B46C1F34A
:1042F8000A52363A4CF250318E4221DC164440F2D2
:10430800FE7296421CDC002E26DC16F1350F31DBDE
:1043180023F0FF4121F4E001363641EA0655002238
:1043280038462946224BFCF7CBF9BDE8F08140F22C
:10433800FF7C6245DED10246FCF70CF8BDE8F0814F
:10434800454615A3D3E9002363F31E0529461948FA
:10435800FCF7B6F9BDE8F0816FF31E53384643EA1F
:104368000651BDE8F0810EA3D3E90023FCF7A8F9B4
:10437800BDE8F08108F0004444F0D27141F4B7314F
:1043880007A3D3E900230C4841F01F01FCF798F973
:10439800CBE700BFAFF300809C7500883CE4377E14
:1043A80059F3F8C21F6EA50100005043B03CFFFF4F
:1043B8000000903C9C75008859F3F8C2000000008A
:1043C800C1F30A5C2DE9F041ACF2FF35132D02462A
:1043D8000B460C46064622DC002D42DBDFF8E08067
:1043E8000F4648FA05F801EA080C5CEA000C1BD0F5
:1043F80031A3D3E90023FBF7ADFF00220023FCF72C
:10440800EFFB40B1002C03DA4FF480132B411F441B
:10441800002627EA080421463046BDE8F081332DFE
:1044280006DDB5F5806F2CD010461946BDE8F08141
:104438004FF0FF37ACF2134C27FA0CF73842F3D0A1
:104448001DA3D3E90023FBF785FF00220023FCF717
:10445800C7FB0028DFD0002C33461CDB23EA070605
:10446800D9E715A3D3E90023FBF774FF0022002343
:10447800FCF7B6FB0028CED0002C05DB002634461E
:10448800C9E7FBF767FFD1E724F0004426430DD1C5
:104498004FF00044BFE7142D06D00122C5F13405C2
:1044A800AA4013449E42D9D90134D7E70026054CC7
:1044B800B1E700BFAFF300809C7500883CE4377E0D
:1044C800FFFF0F000000F0BF03685A004CBF43F025
:1044D800004323F000431844704700BF2DE9F0471C
:1044E80041B301F1FF380546164647460024E11955
:1044F80001EBD171491005EBC10A5046FFF7E4FF03
:10450800884503464FEAC1090ED009F10800B342B5
:1045180028440BD8FFF7D8FF0138B04201F1010455
:10452800E5D35046BDE8F087B042FAD98C4201D0B5
:104538004F1EDCE74FF0000A5046BDE8F08700BF89
:10454800012806D0022802D028B904487047044838
:104558007047044870470020704700BF454C00086A
:10456800554C00084D4C000830B5224B044683B02A
:104578008D1E3BB3284601A9AFF30080E8B101992D
:104588002A46FFF7ABFF0146B8B1FFF79DFF4B681E
:10459800A064012B2BD0002B26DB081DFFF794FF0E
:1045A800002323650368E064002B12DBFFF78CFF10
:1045B80003460020236103B030BD00230920236196
:1045C80003B030BD0C4B0D491846C91AC9100191EA
:1045D800D6E7C3F30360FFF7B3FF031E0CBF092040
:1045E8000020236103B030BD0123081DD9E7002353
:1045F8000520DFE700000000FC5600089C57000873
:10460800036810B5DA07044606D49B0700F150008A
:1046180009D5FCF725FD2368590709D51A070ED5D2
:10462800DB0613D510BDFCF713FD23685907F5D435
:1046380004F1D800FCF71CFD23681A07F0D404F530
:10464800AC70FCF71DFD2368DB06EBD404F5EC70B9
:10465800BDE81040FCF758BD0346006800B1184497
:10466800704700BF704700BF70B504460E4620462D
:10467800316CFFF779FF054698B9D6F840C0324645
:10468800214601202369C4F814C098470828EED0B1
:10469800072806D12846316CFFF7E4FF301DFCF7E8
:1046A800CBFC00F0E5FD00BF2DE9F04F4FF0000E08
:1046B800ADF5777D0DF10C0C0F1DD0F80C90D0F8EE
:1046C80018A0064614460FCFACE80F000FCFACE891
:1046D8000F000FCFACE80F0097E80F0002AD8CE891
:1046E8000F000DF5F878C5F800E021E02B6C4FF4C9
:1046F800F472294673614046FCF774FD4246314620
:104708003369584698472146D8F838400746AC647C
:10471800012033463246CDE9005AC847044618BB43
:104728004FF4F47241462846FCF75CFD082F19D176
:104738003046296CFFF718FF093407465FFA84FBF7
:104748000028D3D0A96B3346A96432460120CDE9AD
:10475800005A4BF01001C84730B938460DF5777D3F
:10476800BDE8F08F072F05D0092738460DF5777D6E
:10477800BDE8F08F2046296CFFF774FF03A8FCF70B
:104788005BFC00BFF0B54FF0FF3ECB6BFBB001AC5C
:104798000B6401F1040C0F460546BCE80F000FC47A
:1047A800BCE80F000FC4BCE80F000FC49CE80F0062
:1047B8006E4684E80F00CDF800E006E03246294650
:1047C8002B6998470828044608D12846316CFFF71A
:1047D800CBFE0028F2D009207BB0F0BD3046FFF7B1
:1047E8000FFF062CF7D139462846FFF73DFF00BFDB
:1047F80010B414468461DC6BC16000221C64194645
:1048080010BCFFF751BF00BF70B54369C6680B64A1
:10481800AEB90A46036904460D4601460220984788
:10482800072805D008280FD129462046FFF71CFF86
:104838003046296CFFF716FF281DFCF7FDFB012207
:10484800FFF732FF00F014FD00F012FDC26808B552
:1048580042B1BDE80840D1F83CC00022C1F840C0D0
:10486800FFF722BFFFF78EFF092008BD052915D8DD
:10487800DFE801F00A031403030501207047436CC5
:10488800009A00201360704743B90F2A06D800EB3E
:1048980082025368009A0020136070470220704714
:1048A800002300B585B00A4603A900911946FFF711
:1048B800DDFF039805B05DF804FB00BF052915D896
:1048C800DFE801F00A031403030501207047009B89
:1048D8001B6843640020704743B90F2A06D8009B21
:1048E80000EB82021B68002053607047022070476B
:1048F800002310B584B003AC039200940A4619460D
:10490800FFF7DCFF04B010BD2DE9F0414FF0FF3890
:10491800D36BADF5107D0DF15C0E136402F1040C40
:1049280007460E46BCE80F00AEE80F00BCE80F00D3
:10493800AEE80F00BCE80F00AEE80F009CE80F00DF
:1049480016AC6D468EE80F00C4F8008012E00C210A
:1049580020462A46FFF7CCFF31462046B84778B9AB
:104968002246294608202B6998470528804609D001
:10497800092805D02846216CFFF7F6FD0028E6D067
:104988004FF009082046FFF73BFE40460DF5107D25
:10499800BDE8F0812DE9F04F1646CA6C0D4652F875
:1049A800041B89B000F0030C0692E3B102240F0C3B
:1049B8008DF81D700904FFB2059102EB8702296D7D
:1049C800BCF1020F08BFAA6B11F001088DF81C405A
:1049D8000FD0304605A900F0CBFA002839D10820BD
:1049E80009B0BDE8F08F0902032405918DF81D3048
:1049F800E5E71768002FECD0E3469A4600F0080177
:104A08000191CDF80880BAF1020F26D01788548892
:104A180002F10409AA6C24F001030F21304603EBCC
:104A28000208FFF73DFF804515D827F0010202EB89
:104A38000803834294BF00230123640004F00204A6
:104A480007F001072743012F0BD0022F50D0002F6A
:104A580045D00920C4E70023EFE7546802F10809AC
:104A6800D8E7BBF1000F73D1CBB1D9F80430D9F82E
:104A78000020991C4FEAD272EBD005F1580401339B
:104A8800049400F0CD8009F10400FFF7E5FD04ABC4
:104A980001462846AFF30080002840F0978009F1CE
:104AA80008021768002FAED1304605A9DDF8088046
:104AB80000F05EFA0028CCD1B8F1000F8FD00F219A
:104AC8003046FFF7EDFE0E2102463046FFF710FF95
:104AD8000F213046584AFFF70BFF072080E7BBF14C
:104AE800000F02D0002B40F0888009F10402D8E7BB
:104AF800D9F8004024F00048BBF1000F0FD12BB1CA
:104B0800019B002B3CD0B8F1000F39D0002C01DA02
:104B180009F1040908F1010209EB8202C1E70D213C
:104B28003046FFF7BDFE2F6A8742EFD1AB6A994541
:104B3800ECD100240423C5E90B434B44C5F8288075
:104B48006B63D9F80030A34271DB01230293E1E7DC
:104B58000D213046FFF7A4FE2C6A84429FD1AB6A30
:104B680099459CD14846FFF7AFFC0F2102463046D5
:104B7800FFF7BEFE2A4600213046FFF7B9FEACE734
:104B880005F15803CDF80CB00024B34609F1040729
:104B98001E460BE038460496FFF75EFD00220146EC
:104BA80004AB2846AFF30080043700BB444504F14A
:104BB8000104EFD10D215846FFF772FE0246049B0F
:104BC8000620C5E90823C5F8289009E704460D2101
:104BD8003046FFF765FE049E022C08BFEE6228628D
:104BE80008BF05F12C060620C5E90969F8E65E4606
:104BF800D9F80040DDF80CB088E74846FFF764FCB8
:104C080009F104020446AA632846AFF3008000288D
:104C18003FF41FAF22460F213046FFF769FE5CE7DD
:104C280030460D21FFF73CFE26462862DBE708F1F7
:104C3800010209EB820096E7000000000023FFF75D
:104C4800A9BE00BF0123FFF7A5BE00BF0223FFF7DF
:104C5800A1BE00BF2DE9F04105461446C4B00529A0
:104C680008D8DFE801F0162D076E950B3A19102ABF
:104C780040F2B480022044B0BDE8F081836B002C80
:104C8800F8D153F8042B42648363002044B0BDE894
:104C9800F081002BEED14FF0010E816B2A1DA0B2DE
:104CA8000EFA03FC1CEA000F1CBF51F8046B42F813
:104CB80023600133102BF3D1A004E6D4A963E4E701
:104CC800012B4FEA1447A4B2D0D0052BD2D107EB61
:104CD8000408B8F1200FCDD80F2F40F2BC80002C6B
:104CE800D3D00268A046510700F11A81019302ACA3
:104CF8002046FCF7C1F9D5F838C0019B102F39467A
:104D08004FEA480838BF102108F1FF38424660468C
:104D180004EBC101843950F8046B013A41F8046F7F
:104D2800561CF8D10CF1040C012B0CEB880200F096
:104D3800D6800F2FAA6340F2FB802046FCF798F933
:104D4800A3E7032B96D11FFA84F808EB1443102B22
:104D58004FEA14448ED803681E0700F1A38022AEE0
:104D68003046FCF7AFF94FEA4801AF6B06EBC402D7
:104D78004B1E41B1B81A1158013B5C1C42F8041B88
:104D8800F9D107EBC8073046AF63FCF779F97CE740
:104D9800002B7FF46FAF102C3FF66CAF0368D8067A
:104DA80078D422AE3046FCF7B9F901270023304603
:104DB800A96B07FA03F2224203F1010305D00A4660
:104DC80052F804CB1146C0F800C0042B00F10400CF
:104DD800EFD13046A963FCF797F956E7102F3FF457
:104DE80049AF0268D10708D5284622F0030240F8E7
:104DF800502B0193FCF730F9019B22AE304601930A
:104E0800FCF72AF9D5F838C0002C6AD04FF0000812
:104E1800019B4FEA440E0EF1FF3E7246604606EBD8
:104E2800C701043950F8044B013A41F8044F541CA7
:104E3800F8D10CF1040C0CEB8E0CB8F1000F39D141
:104E4800012B4ED00F2FC5F838C03FF61EAF3046A5
:104E5800FCF706F919E70268B8F1100F02F0010132
:104E68002AD851B1284622F0010242F0020240F845
:104E7800502B0193FCF7F8F8019B22AE30460193C2
:104E8800FCF7F2F8019B002CE1D04FF00008D5F8B0
:104E980038C0BEE723F010032B6005F5EC70FCF773
:104EA8003DF97EE723F00803036000F5AC70FCF7DA
:104EB80009F954E702AC21E7D1B9560726D422AE46
:104EC80030460193FCF7D0F802A8FCF7D5F8A8F112
:104ED8001008D5F838C0019BC7F1100499E794462B
:104EE80022AE0CF104033046AB63FCF7B1F8CCE614
:104EF80022F0010242F0020240F8502B0193FCF725
:104F0800B3F82A68019B12F0040FD8D0284622F083
:104F1800040240F8D82B0193FCF7AEF8019BCEE7CA
:104F280022F0040240F8D82B0193FCF7A5F8DEE63E
:104F380022A8FCF795F800E7027A03467AB9427A84
:104F4800A2B14FF0030C4168013A427208680A1D89
:104F58005A60020283F808C0000E1A6070470068A1
:104F6800013A1A7202021A60000E7047B0207047A8
:104F78002DE9F043002706460D4685B02846FFF781
:104F8800DBFFB028044600F0178103065FD500F068
:104F9800F003A02B1DD033D8802B00F08880902BF5
:104FA8002AD100F00D030D2B26D000230DF108089F
:104FB800194600F00F02CDF800803046FFF756FC86
:104FC80000230D2219463046CDF80080FFF776FC05
:104FD800D4E7C3434FF47F6203F007031A41010784
:104FE80002F47F6201D542F480420023304619461C
:104FF800FFF730FE0028C1D0092005B0BDE8F083D6
:10500800B02B69D0C02B40D1C62800F0C180C7287A
:1050180000F0D58000F0F803C02B00F0E280C8282B
:1050280000F0ED80C928E7D12846FFF785FF052362
:1050380001210446220304F00F0402F470220C44F8
:1050480030462243FFF706FE002897D0D4E78300B6
:10505800DBB203F1040800230DF1080919460D22FB
:105068003046CDF80090FFF701FC0023029A600655
:105078004CBFA2EB08024244029230460D22194668
:10508800CDF80090FFF71AFC78E700F0F803D02B72
:10509800B2D100F00702013205230121304642F463
:1050A8000022FFF7D7FD00283FF468AFA4E72846A1
:1050B800FFF742FF24022043B0F5004F9CD00023A5
:1050C800040119463046A2B2FFF7C4FD002893D167
:1050D800C4F3C030074351E7A0F1B103042B00F239
:1050E800B380DFE803F04B1D160C0300002303AA6E
:1050F800009230460D221946FFF7B8FB3EE7002321
:10510800052130461A46FFF7A5FD00283FF436AFC3
:1051180072E72846FFF710FF01230446194689E77E
:1051280000230DF108090D2219463046CDF80090EC
:10513800FFF79CFB2846FFF7FFFE02064FF0020828
:10514800029C0CD500F07F0000FA08F004442846C1
:105158000294FFF7F1FE030608F10708F2D40023D2
:1051680000FA08F004F50174204402900D2230463C
:105178001946CDF80090FFF7A1FBFFE62846FFF798
:10518800DBFE431EDBB20E2B02467FF62EAF33E763
:105198002846FFF7D1FE04460323220304F00F0438
:1051A80002F470220134194630462243FFF752FDBB
:1051B80000283FF4E3AE1FE7B7B300201DE72846F9
:1051C800FFF7BAFE431EDBB20E2B02463FF614AFC2
:1051D800002304213046FFF73DFD00283FF4CEAE02
:1051E8000AE7032300F00F0201323046194642F461
:1051F8002022FFF72FFD00283FF4C0AEFCE628462A
:10520800FFF79AFE0246012102F0F00402F00F02B5
:1052180010340A440523304642EA0432FFF71AFDE7
:1052280000283FF4ABAEE7E602AC3B4639460E2217
:1052380030460094FFF71AFB0F223B4639463046AA
:105248000094FFF73BFBB8E700F0FC03B42B3FF4F6
:10525800D3AE012300F007021A443046194642F43F
:105268000022FFF7F7FC00283FF488AEC4E600BF31
:10527800062008B500F052F80120FCF70FFC00BF2B
:10528800830730B546D08446841805E0634603F8A2
:10529800011B9D0703D09C46A445F7D130BD013AB8
:1052A8000244A2EB0C02032A29D9CCB204EB042451
:1052B8000F2A04EB04442FD9A2F1100C2CF00F0C88
:1052C80003F11005AC44C3E90044C3E902441033B8
:1052D8006345F8D112F00C0F02F00F0E18D01A46E1
:1052E8002EF0030C9C44AEF1040542F8044B6245D1
:1052F800FBD125F0030404330EF003022344002AF3
:10530800CCD0C9B21A4403F8011B9342FBD130BD7B
:105318007246F4E70346C6E79646E0E738B5144B0D
:105328001F281D681ED8D5F83821044662B152F8E6
:1053380020304BB1012B05D0591C0FD0002142F869
:1053480020109847002038BD284600F027F822464C
:1053580001462846BDE8384000F00CB81623012065
:105368002B6038BD16234FF0FF302B6038BD00BFCF
:105378000C00002070B50026074D0446084611466B
:105388002E60FCF783FB431C00D070BD2B68002BFC
:10539800FBD0236070BD00BF68040020FCF774BB1D
:1053A800014B1868704700BF0C00002070B50F4B08
:1053B8000F4DAB42A3EB050607D00024B61055F8F5
:1053C800043B01349847A642F9D800F07FF8094D0C
:1053D800094B5E1BAB424FEAA60606D0002455F8DF
:1053E800043B01349847A642F9D870BD9C57000881
:1053F8009C5700089C570008A4570008704700BF36
:10540800704700BF024B13B1024800F005B870475F
:10541800000000002D540008002301461A461846D3
:1054280000F014B838B5074D074C2C1BA41005D054
:10543800013C55F8043D9847002CF9D1BDE83840A7
:1054480000F04AB8A8570008A45700082DE9F84307
:105458001B4D0646286898460F469146FFF7CEFF33
:10546800184B1C681CB3286865681F2D22DC4EB9D0
:105478006B1C0235636044F82570FFF7C1FF0020FC
:10548800BDE8F883012304EB8501C1F88890D4F8BE
:105498008821AB401A43022EC4F88821C1F808813C
:1054A800E6D1D4F88C211A43C4F88C21E0E7064CE5
:1054B8001C60D8E7FFF7A4FF4FF0FF30E0E700BF1C
:1054C800500100207004002074040020F8B500BFCB
:1054D800F8BC08BC9E467047F8B500BFF8BC08BCCD
:0454E8009E46704725
:1054F0000000000000000000010203040607080984
:105500000102000002030405060708090A0B0C0D3E
:105510000E0F1010FB21F93FFB2109407CD91240EE
:10552000FB2119407A6A1F407CD92240BBFD2540EF
:10553000FB2129403A462C407A6A2F405C47314093
:105540007CD932409C6B3440BBFD3540DB8F37400B
:10555000FB2139401BB43A403A463C405AD83D40C2
:105560007A6A3F404C7E40405C4741406C1042406C
:105570007CD942408CA243409C6B4440AC344540B3
:10558000BBFD4540CBC64640DB8F4740EB5848400B
:10559000FB21494083F9A200444E6E00FC2915000E
:1055A000D1572700DD34F50062DBC0003C9995003F
:1055B000419043006351FE00BBDEAB00B761C50004
:1055C0003A6E2400D24D42004906E00009EA2E005E
:1055D0001C92D100EB1DFE0029B11C00E83EA70083
:1055E000F535820044BB2E009CE98400B42670008F
:1055F000417E5F00D6913900538339009CF4390015
:105600008B5F840028F9BD00F81F3B00DEFF970088
:105610000F980500112FEF000A5A8B006D1F6D00C7
:10562000CF7E360009CB2700464FB7009E663F006D
:105630002DEA5F00BA277500E5EBC7003D7BF1005E
:10564000F739070092528A00FB6BEA001FB15F0036
:10565000085D8D00300356007BFC4600F0AB6B000C
:1056600020BCCF0036F49A00E3A91D005E619100D2
:10567000081BE60085996500A0145F008D40680056
:1056800080D8FF0027734D0006063100CA5615006A
:10569000C9A873007BE260006B8CC00000000000B2
:1056A00000000040FB21F93F000000002D44743E43
:1056B000000000809846F83C0000006051CC783B28
:1056C00000000080831BF0390000004020257A385C
:1056D000000000802282E336000000001DF36935DF
:1056E00002000000030000000400000006000000AB
:0C56F00008B10181B0B00084000000008F
:1056FC00F0BAFF7F01000000DEC2FF7FB0AA198064
:10570C0026C3FF7F010000005CEEFF7FB0A9028082
:10571C00ECEEFF7FB0B0A8803CEFFF7F01000000F3
:10572C0044EFFF7FB0B0AA807CEFFF7FAF76B280F2
:10573C0050F0FF7FAB3F3A80B4F0FF7F01000000D8
:10574C00C4F0FF7FB0B0AA8000F1FF7F98FFFF7F0D
:10575C0018F1FF7F01000000ACF1FF7FAC0FB280AD
:10576C0030F2FF7FB0AF0880D0F4FF7F0100000063
:10577C00E0F4FF7FAC3F0380BCF7FF7F010000002B
:10578C00ECF7FF7FB0AD0480E4FAFF7F010000006E
:08579C000D5400084113000840
:0457A40019130008CD
:1057A80000127A0001000000100000001000002024
:1057B80000000000300300209803002000040020AF
:1057C80000000000000000000000000000000000D1
:1057D80000000000000000000000000000000000C1
:1057E80000000000000000000000000000000000B1
:1057F80000000000000000000000000000000000A1
:105808000000000000000000000000000000000090
:105818000000000000000000000000000000000080
:105828000000000000000000000000000000000070
:105838000000000000000000000000000000000060
:10584800000000000000000001000000000000004F
:105858000E33CDAB34126DE6ECDE05000B00000014
:105868000000000000000000000000000000000030
:105878000000000000000000000000000000000020
:105888000000000000000000000000000000000010
:105898000000000000000000000000000000000000
:1058A80000000000000000000000000000000000F0
:1058B80000000000000000000000000000000000E0
:1058C80000000000000000000000000000000000D0
:1058D80000000000000000000000000000000000C0
:1058E80000000000000000000000000000000000B0
:0458F8006C0400201C
:04000005080020D5FA
:00000001FF
